{
  "_format": "hh-sol-artifact-1",
  "contractName": "MergeTokenPortal",
  "sourceName": "contracts/merge/MergeTokenPortal.sol",
  "abi": [
    {
      "inputs": [],
      "stateMutability": "nonpayable",
      "type": "constructor"
    },
    {
      "anonymous": false,
      "inputs": [
        {
          "indexed": false,
          "internalType": "address",
          "name": "previousAdmin",
          "type": "address"
        },
        {
          "indexed": false,
          "internalType": "address",
          "name": "newAdmin",
          "type": "address"
        }
      ],
      "name": "AdminChanged",
      "type": "event"
    },
    {
      "anonymous": false,
      "inputs": [
        {
          "indexed": true,
          "internalType": "address",
          "name": "beacon",
          "type": "address"
        }
      ],
      "name": "BeaconUpgraded",
      "type": "event"
    },
    {
      "anonymous": false,
      "inputs": [
        {
          "indexed": true,
          "internalType": "address",
          "name": "sourceToken",
          "type": "address"
        },
        {
          "indexed": false,
          "internalType": "uint256",
          "name": "depositLimit",
          "type": "uint256"
        }
      ],
      "name": "DepositLimitUpdated",
      "type": "event"
    },
    {
      "anonymous": false,
      "inputs": [
        {
          "indexed": true,
          "internalType": "address",
          "name": "sourceToken",
          "type": "address"
        },
        {
          "indexed": false,
          "internalType": "address",
          "name": "mergeToken",
          "type": "address"
        },
        {
          "indexed": false,
          "internalType": "address",
          "name": "sender",
          "type": "address"
        },
        {
          "indexed": false,
          "internalType": "uint256",
          "name": "amount",
          "type": "uint256"
        },
        {
          "indexed": false,
          "internalType": "address",
          "name": "receiver",
          "type": "address"
        }
      ],
      "name": "DepositToMerge",
      "type": "event"
    },
    {
      "anonymous": false,
      "inputs": [
        {
          "indexed": false,
          "internalType": "uint8",
          "name": "version",
          "type": "uint8"
        }
      ],
      "name": "Initialized",
      "type": "event"
    },
    {
      "anonymous": false,
      "inputs": [
        {
          "indexed": true,
          "internalType": "address",
          "name": "previousOwner",
          "type": "address"
        },
        {
          "indexed": true,
          "internalType": "address",
          "name": "newOwner",
          "type": "address"
        }
      ],
      "name": "OwnershipTransferred",
      "type": "event"
    },
    {
      "anonymous": false,
      "inputs": [
        {
          "indexed": true,
          "internalType": "address",
          "name": "sourceToken",
          "type": "address"
        },
        {
          "indexed": false,
          "internalType": "address",
          "name": "mergeToken",
          "type": "address"
        },
        {
          "indexed": false,
          "internalType": "uint256",
          "name": "depositLimit",
          "type": "uint256"
        }
      ],
      "name": "SourceTokenAdded",
      "type": "event"
    },
    {
      "anonymous": false,
      "inputs": [
        {
          "indexed": true,
          "internalType": "address",
          "name": "sourceToken",
          "type": "address"
        },
        {
          "indexed": false,
          "internalType": "bool",
          "name": "isLocked",
          "type": "bool"
        }
      ],
      "name": "SourceTokenLocked",
      "type": "event"
    },
    {
      "anonymous": false,
      "inputs": [
        {
          "indexed": true,
          "internalType": "address",
          "name": "sourceToken",
          "type": "address"
        }
      ],
      "name": "SourceTokenRemoved",
      "type": "event"
    },
    {
      "anonymous": false,
      "inputs": [
        {
          "indexed": true,
          "internalType": "address",
          "name": "implementation",
          "type": "address"
        }
      ],
      "name": "Upgraded",
      "type": "event"
    },
    {
      "anonymous": false,
      "inputs": [
        {
          "indexed": true,
          "internalType": "address",
          "name": "sourceToken",
          "type": "address"
        },
        {
          "indexed": false,
          "internalType": "address",
          "name": "mergeToken",
          "type": "address"
        },
        {
          "indexed": false,
          "internalType": "address",
          "name": "sender",
          "type": "address"
        },
        {
          "indexed": false,
          "internalType": "uint256",
          "name": "amount",
          "type": "uint256"
        },
        {
          "indexed": false,
          "internalType": "address",
          "name": "receiver",
          "type": "address"
        }
      ],
      "name": "WithdrawFromMerge",
      "type": "event"
    },
    {
      "inputs": [
        {
          "internalType": "address",
          "name": "_sourceToken",
          "type": "address"
        },
        {
          "internalType": "address",
          "name": "_mergeToken",
          "type": "address"
        },
        {
          "internalType": "uint256",
          "name": "_depositLimit",
          "type": "uint256"
        }
      ],
      "name": "addSourceToken",
      "outputs": [],
      "stateMutability": "nonpayable",
      "type": "function"
    },
    {
      "inputs": [
        {
          "internalType": "address",
          "name": "_sourceToken",
          "type": "address"
        },
        {
          "internalType": "uint256",
          "name": "_amount",
          "type": "uint256"
        },
        {
          "internalType": "address",
          "name": "_receiver",
          "type": "address"
        }
      ],
      "name": "deposit",
      "outputs": [],
      "stateMutability": "nonpayable",
      "type": "function"
    },
    {
      "inputs": [
        {
          "internalType": "address",
          "name": "_sourceToken",
          "type": "address"
        }
      ],
      "name": "getSourceTokenInfos",
      "outputs": [
        {
          "components": [
            {
              "internalType": "bool",
              "name": "isSupported",
              "type": "bool"
            },
            {
              "internalType": "bool",
              "name": "isLocked",
              "type": "bool"
            },
            {
              "internalType": "address",
              "name": "mergeToken",
              "type": "address"
            },
            {
              "internalType": "uint256",
              "name": "balance",
              "type": "uint256"
            },
            {
              "internalType": "uint256",
              "name": "depositLimit",
              "type": "uint256"
            }
          ],
          "internalType": "struct IMergeTokenPortal.SourceTokenInfo",
          "name": "",
          "type": "tuple"
        }
      ],
      "stateMutability": "view",
      "type": "function"
    },
    {
      "inputs": [],
      "name": "initialize",
      "outputs": [],
      "stateMutability": "nonpayable",
      "type": "function"
    },
    {
      "inputs": [],
      "name": "owner",
      "outputs": [
        {
          "internalType": "address",
          "name": "",
          "type": "address"
        }
      ],
      "stateMutability": "view",
      "type": "function"
    },
    {
      "inputs": [],
      "name": "proxiableUUID",
      "outputs": [
        {
          "internalType": "bytes32",
          "name": "",
          "type": "bytes32"
        }
      ],
      "stateMutability": "view",
      "type": "function"
    },
    {
      "inputs": [
        {
          "internalType": "address",
          "name": "_sourceToken",
          "type": "address"
        }
      ],
      "name": "removeSourceToken",
      "outputs": [],
      "stateMutability": "nonpayable",
      "type": "function"
    },
    {
      "inputs": [],
      "name": "renounceOwnership",
      "outputs": [],
      "stateMutability": "nonpayable",
      "type": "function"
    },
    {
      "inputs": [
        {
          "internalType": "address",
          "name": "_sourceToken",
          "type": "address"
        },
        {
          "internalType": "uint256",
          "name": "_limit",
          "type": "uint256"
        }
      ],
      "name": "setDepositLimit",
      "outputs": [],
      "stateMutability": "nonpayable",
      "type": "function"
    },
    {
      "inputs": [
        {
          "internalType": "address",
          "name": "sourceToken",
          "type": "address"
        }
      ],
      "name": "sourceTokenInfoMap",
      "outputs": [
        {
          "internalType": "bool",
          "name": "isSupported",
          "type": "bool"
        },
        {
          "internalType": "bool",
          "name": "isLocked",
          "type": "bool"
        },
        {
          "internalType": "address",
          "name": "mergeToken",
          "type": "address"
        },
        {
          "internalType": "uint256",
          "name": "balance",
          "type": "uint256"
        },
        {
          "internalType": "uint256",
          "name": "depositLimit",
          "type": "uint256"
        }
      ],
      "stateMutability": "view",
      "type": "function"
    },
    {
      "inputs": [
        {
          "internalType": "address",
          "name": "newOwner",
          "type": "address"
        }
      ],
      "name": "transferOwnership",
      "outputs": [],
      "stateMutability": "nonpayable",
      "type": "function"
    },
    {
      "inputs": [
        {
          "internalType": "address",
          "name": "_sourceToken",
          "type": "address"
        },
        {
          "internalType": "bool",
          "name": "_isLocked",
          "type": "bool"
        }
      ],
      "name": "updateDepositStatus",
      "outputs": [],
      "stateMutability": "nonpayable",
      "type": "function"
    },
    {
      "inputs": [
        {
          "internalType": "address",
          "name": "newImplementation",
          "type": "address"
        }
      ],
      "name": "upgradeTo",
      "outputs": [],
      "stateMutability": "nonpayable",
      "type": "function"
    },
    {
      "inputs": [
        {
          "internalType": "address",
          "name": "newImplementation",
          "type": "address"
        },
        {
          "internalType": "bytes",
          "name": "data",
          "type": "bytes"
        }
      ],
      "name": "upgradeToAndCall",
      "outputs": [],
      "stateMutability": "payable",
      "type": "function"
    },
    {
      "inputs": [
        {
          "internalType": "address",
          "name": "_sourceToken",
          "type": "address"
        },
        {
          "internalType": "uint256",
          "name": "_amount",
          "type": "uint256"
        },
        {
          "internalType": "address",
          "name": "_receiver",
          "type": "address"
        }
      ],
      "name": "withdraw",
      "outputs": [],
      "stateMutability": "nonpayable",
      "type": "function"
    }
  ],
  "bytecode": "0x60a06040523073ffffffffffffffffffffffffffffffffffffffff1660809073ffffffffffffffffffffffffffffffffffffffff1681525034801561004357600080fd5b5060805161352e61007b60003960008181610558015281816105e6015281816106e00152818161076e015261081e015261352e6000f3fe6080604052600436106100e85760003560e01c806376fd7da81161008a578063c02209d411610059578063c02209d41461029b578063c5174561146102d8578063f2fde38b14610301578063f45346dc1461032a576100e8565b806376fd7da8146101ef5780638129fc1c146102305780638bcf0271146102475780638da5cb5b14610270576100e8565b80634f1ef286116100c65780634f1ef2861461016857806352d1902d1461018457806369328dec146101af578063715018a6146101d8576100e8565b806303c5fb20146100ed578063272d177d146101165780633659cfe61461013f575b600080fd5b3480156100f957600080fd5b50610114600480360381019061010f919061211a565b610353565b005b34801561012257600080fd5b5061013d60048036038101906101389190612190565b61045e565b005b34801561014b57600080fd5b50610166600480360381019061016191906121d0565b610556565b005b610182600480360381019061017d9190612343565b6106de565b005b34801561019057600080fd5b5061019961081a565b6040516101a691906123b8565b60405180910390f35b3480156101bb57600080fd5b506101d660048036038101906101d191906123d3565b6108d3565b005b3480156101e457600080fd5b506101ed610b2f565b005b3480156101fb57600080fd5b50610216600480360381019061021191906121d0565b610b43565b604051610227959493929190612453565b60405180910390f35b34801561023c57600080fd5b50610245610bb3565b005b34801561025357600080fd5b5061026e600480360381019061026991906121d0565b610d01565b005b34801561027c57600080fd5b50610285610e7b565b60405161029291906124a6565b60405180910390f35b3480156102a757600080fd5b506102c260048036038101906102bd91906121d0565b610ea5565b6040516102cf9190612556565b60405180910390f35b3480156102e457600080fd5b506102ff60048036038101906102fa9190612571565b610f9e565b005b34801561030d57600080fd5b50610328600480360381019061032391906121d0565b6111c5565b005b34801561033657600080fd5b50610351600480360381019061034c91906123d3565b611248565b005b61035b611504565b600060fb60008473ffffffffffffffffffffffffffffffffffffffff1673ffffffffffffffffffffffffffffffffffffffff16815260200190815260200160002090508060000160009054906101000a900460ff166103ef576040517f08c379a00000000000000000000000000000000000000000000000000000000081526004016103e690612621565b60405180910390fd5b818160000160016101000a81548160ff0219169083151502179055508273ffffffffffffffffffffffffffffffffffffffff167f36ec31941083c691fe26f616fbfd234cb1027f9a7820b17af608cb80b087a1e3836040516104519190612641565b60405180910390a2505050565b610466611504565b600060fb60008473ffffffffffffffffffffffffffffffffffffffff1673ffffffffffffffffffffffffffffffffffffffff16815260200190815260200160002090508060000160009054906101000a900460ff166104fa576040517f08c379a00000000000000000000000000000000000000000000000000000000081526004016104f190612621565b60405180910390fd5b8181600201819055508273ffffffffffffffffffffffffffffffffffffffff167feaf15143570c71834bfc4bbd80560897b6b67aaa704aeefeeb2a3fb7f6054d0e83604051610549919061265c565b60405180910390a2505050565b7f000000000000000000000000000000000000000000000000000000000000000073ffffffffffffffffffffffffffffffffffffffff163073ffffffffffffffffffffffffffffffffffffffff16036105e4576040517f08c379a00000000000000000000000000000000000000000000000000000000081526004016105db906126e9565b60405180910390fd5b7f000000000000000000000000000000000000000000000000000000000000000073ffffffffffffffffffffffffffffffffffffffff16610623611582565b73ffffffffffffffffffffffffffffffffffffffff1614610679576040517f08c379a00000000000000000000000000000000000000000000000000000000081526004016106709061277b565b60405180910390fd5b610682816115d9565b6106db81600067ffffffffffffffff8111156106a1576106a0612218565b5b6040519080825280601f01601f1916602001820160405280156106d35781602001600182028036833780820191505090505b5060006115e4565b50565b7f000000000000000000000000000000000000000000000000000000000000000073ffffffffffffffffffffffffffffffffffffffff163073ffffffffffffffffffffffffffffffffffffffff160361076c576040517f08c379a0000000000000000000000000000000000000000000000000000000008152600401610763906126e9565b60405180910390fd5b7f000000000000000000000000000000000000000000000000000000000000000073ffffffffffffffffffffffffffffffffffffffff166107ab611582565b73ffffffffffffffffffffffffffffffffffffffff1614610801576040517f08c379a00000000000000000000000000000000000000000000000000000000081526004016107f89061277b565b60405180910390fd5b61080a826115d9565b610816828260016115e4565b5050565b60007f000000000000000000000000000000000000000000000000000000000000000073ffffffffffffffffffffffffffffffffffffffff163073ffffffffffffffffffffffffffffffffffffffff16146108aa576040517f08c379a00000000000000000000000000000000000000000000000000000000081526004016108a19061280d565b60405180910390fd5b7f360894a13ba1a3210667c828492db98dca3e2076cc3735a920a3ca505d382bbc60001b905090565b6108db611752565b6000821161091e576040517f08c379a000000000000000000000000000000000000000000000000000000000815260040161091590612879565b60405180910390fd5b600060fb60008573ffffffffffffffffffffffffffffffffffffffff1673ffffffffffffffffffffffffffffffffffffffff16815260200190815260200160002090508060000160009054906101000a900460ff166109b2576040517f08c379a00000000000000000000000000000000000000000000000000000000081526004016109a990612621565b60405180910390fd5b82816001015410156109f9576040517f08c379a00000000000000000000000000000000000000000000000000000000081526004016109f09061290b565b60405180910390fd5b82816001016000828254039250508190555060008160000160029054906101000a900473ffffffffffffffffffffffffffffffffffffffff1690508073ffffffffffffffffffffffffffffffffffffffff16639dc29fac33866040518363ffffffff1660e01b8152600401610a6f92919061292b565b600060405180830381600087803b158015610a8957600080fd5b505af1158015610a9d573d6000803e3d6000fd5b50505050610acc83858773ffffffffffffffffffffffffffffffffffffffff166117a19092919063ffffffff16565b8473ffffffffffffffffffffffffffffffffffffffff167fc085d623523f958585ba0bf32d0d839c99183ce5d5efb16267f0136b6bdeb6cb82338787604051610b189493929190612954565b60405180910390a25050610b2a611827565b505050565b610b37611504565b610b416000611831565b565b60fb6020528060005260406000206000915090508060000160009054906101000a900460ff16908060000160019054906101000a900460ff16908060000160029054906101000a900473ffffffffffffffffffffffffffffffffffffffff16908060010154908060020154905085565b60008060019054906101000a900460ff16159050808015610be45750600160008054906101000a900460ff1660ff16105b80610c115750610bf3306118f7565b158015610c105750600160008054906101000a900460ff1660ff16145b5b610c50576040517f08c379a0000000000000000000000000000000000000000000000000000000008152600401610c4790612a0b565b60405180910390fd5b60016000806101000a81548160ff021916908360ff1602179055508015610c8d576001600060016101000a81548160ff0219169083151502179055505b610c9561191a565b610c9d61196b565b610ca56119c4565b8015610cfe5760008060016101000a81548160ff0219169083151502179055507f7f26b83ff96e1f2b6a682f133852f6798a09c465da95921460cefb38474024986001604051610cf59190612a7d565b60405180910390a15b50565b610d09611504565b600060fb60008373ffffffffffffffffffffffffffffffffffffffff1673ffffffffffffffffffffffffffffffffffffffff16815260200190815260200160002090506000816001015414610d93576040517f08c379a0000000000000000000000000000000000000000000000000000000008152600401610d8a90612ae4565b60405180910390fd5b60fb60008373ffffffffffffffffffffffffffffffffffffffff1673ffffffffffffffffffffffffffffffffffffffff168152602001908152602001600020600080820160006101000a81549060ff02191690556000820160016101000a81549060ff02191690556000820160026101000a81549073ffffffffffffffffffffffffffffffffffffffff02191690556001820160009055600282016000905550508173ffffffffffffffffffffffffffffffffffffffff167f7b4339b819b0ab9b7110544343af0b80279eeab90ead6bb212c72dcb51c8ec0660405160405180910390a25050565b6000609760009054906101000a900473ffffffffffffffffffffffffffffffffffffffff16905090565b610ead612027565b60fb60008373ffffffffffffffffffffffffffffffffffffffff1673ffffffffffffffffffffffffffffffffffffffff1681526020019081526020016000206040518060a00160405290816000820160009054906101000a900460ff161515151581526020016000820160019054906101000a900460ff161515151581526020016000820160029054906101000a900473ffffffffffffffffffffffffffffffffffffffff1673ffffffffffffffffffffffffffffffffffffffff1673ffffffffffffffffffffffffffffffffffffffff168152602001600182015481526020016002820154815250509050919050565b610fa6611504565b600073ffffffffffffffffffffffffffffffffffffffff168373ffffffffffffffffffffffffffffffffffffffff16141580156110105750600073ffffffffffffffffffffffffffffffffffffffff168273ffffffffffffffffffffffffffffffffffffffff1614155b61104f576040517f08c379a000000000000000000000000000000000000000000000000000000000815260040161104690612b50565b60405180910390fd5b6040518060a001604052806001151581526020016000151581526020018373ffffffffffffffffffffffffffffffffffffffff168152602001600081526020018281525060fb60008573ffffffffffffffffffffffffffffffffffffffff1673ffffffffffffffffffffffffffffffffffffffff16815260200190815260200160002060008201518160000160006101000a81548160ff02191690831515021790555060208201518160000160016101000a81548160ff02191690831515021790555060408201518160000160026101000a81548173ffffffffffffffffffffffffffffffffffffffff021916908373ffffffffffffffffffffffffffffffffffffffff16021790555060608201518160010155608082015181600201559050508273ffffffffffffffffffffffffffffffffffffffff167f49ae60cb6606354d047bfec94be4859d4cc5d324f172f8c809f34328b830ac2883836040516111b892919061292b565b60405180910390a2505050565b6111cd611504565b600073ffffffffffffffffffffffffffffffffffffffff168173ffffffffffffffffffffffffffffffffffffffff160361123c576040517f08c379a000000000000000000000000000000000000000000000000000000000815260040161123390612be2565b60405180910390fd5b61124581611831565b50565b611250611752565b60008211611293576040517f08c379a000000000000000000000000000000000000000000000000000000000815260040161128a90612c4e565b60405180910390fd5b600060fb60008573ffffffffffffffffffffffffffffffffffffffff1673ffffffffffffffffffffffffffffffffffffffff16815260200190815260200160002090508060000160009054906101000a900460ff16611327576040517f08c379a000000000000000000000000000000000000000000000000000000000815260040161131e90612621565b60405180910390fd5b8060000160019054906101000a900460ff1615611379576040517f08c379a000000000000000000000000000000000000000000000000000000000815260040161137090612cba565b60405180910390fd5b600083826001015461138b9190612d09565b905081600201548111156113d4576040517f08c379a00000000000000000000000000000000000000000000000000000000081526004016113cb90612daf565b60405180910390fd5b80826001018190555061140a3330868873ffffffffffffffffffffffffffffffffffffffff16611a1d909392919063ffffffff16565b60008260000160029054906101000a900473ffffffffffffffffffffffffffffffffffffffff1690508073ffffffffffffffffffffffffffffffffffffffff166340c10f1985876040518363ffffffff1660e01b815260040161146e92919061292b565b600060405180830381600087803b15801561148857600080fd5b505af115801561149c573d6000803e3d6000fd5b505050508573ffffffffffffffffffffffffffffffffffffffff167f5586f53fa70e67e5ed74e8166fea8ffd24a85f76ca9c121ff432e73735a80097823388886040516114ec9493929190612954565b60405180910390a25050506114ff611827565b505050565b61150c611aa6565b73ffffffffffffffffffffffffffffffffffffffff1661152a610e7b565b73ffffffffffffffffffffffffffffffffffffffff1614611580576040517f08c379a000000000000000000000000000000000000000000000000000000000815260040161157790612e1b565b60405180910390fd5b565b60006115b07f360894a13ba1a3210667c828492db98dca3e2076cc3735a920a3ca505d382bbc60001b611aae565b60000160009054906101000a900473ffffffffffffffffffffffffffffffffffffffff16905090565b6115e1611504565b50565b6116107f4910fdfa16fed3260ed0e7147f7cc6da11a60208b5b9406d12a635614ffd914360001b611ab8565b60000160009054906101000a900460ff16156116345761162f83611ac2565b61174d565b8273ffffffffffffffffffffffffffffffffffffffff166352d1902d6040518163ffffffff1660e01b8152600401602060405180830381865afa92505050801561169c57506040513d601f19601f820116820180604052508101906116999190612e67565b60015b6116db576040517f08c379a00000000000000000000000000000000000000000000000000000000081526004016116d290612f06565b60405180910390fd5b7f360894a13ba1a3210667c828492db98dca3e2076cc3735a920a3ca505d382bbc60001b8114611740576040517f08c379a000000000000000000000000000000000000000000000000000000000815260040161173790612f98565b60405180910390fd5b5061174c838383611b7b565b5b505050565b600260c95403611797576040517f08c379a000000000000000000000000000000000000000000000000000000000815260040161178e90613004565b60405180910390fd5b600260c981905550565b6118228363a9059cbb60e01b84846040516024016117c092919061292b565b604051602081830303815290604052907bffffffffffffffffffffffffffffffffffffffffffffffffffffffff19166020820180517bffffffffffffffffffffffffffffffffffffffffffffffffffffffff8381831617835250505050611ba7565b505050565b600160c981905550565b6000609760009054906101000a900473ffffffffffffffffffffffffffffffffffffffff16905081609760006101000a81548173ffffffffffffffffffffffffffffffffffffffff021916908373ffffffffffffffffffffffffffffffffffffffff1602179055508173ffffffffffffffffffffffffffffffffffffffff168173ffffffffffffffffffffffffffffffffffffffff167f8be0079c531659141344cd1fd0a4f28419497f9722a3daafe3b4186f6b6457e060405160405180910390a35050565b6000808273ffffffffffffffffffffffffffffffffffffffff163b119050919050565b600060019054906101000a900460ff16611969576040517f08c379a000000000000000000000000000000000000000000000000000000000815260040161196090613096565b60405180910390fd5b565b600060019054906101000a900460ff166119ba576040517f08c379a00000000000000000000000000000000000000000000000000000000081526004016119b190613096565b60405180910390fd5b6119c2611c6e565b565b600060019054906101000a900460ff16611a13576040517f08c379a0000000000000000000000000000000000000000000000000000000008152600401611a0a90613096565b60405180910390fd5b611a1b611ccf565b565b611aa0846323b872dd60e01b858585604051602401611a3e939291906130b6565b604051602081830303815290604052907bffffffffffffffffffffffffffffffffffffffffffffffffffffffff19166020820180517bffffffffffffffffffffffffffffffffffffffffffffffffffffffff8381831617835250505050611ba7565b50505050565b600033905090565b6000819050919050565b6000819050919050565b611acb816118f7565b611b0a576040517f08c379a0000000000000000000000000000000000000000000000000000000008152600401611b019061315f565b60405180910390fd5b80611b377f360894a13ba1a3210667c828492db98dca3e2076cc3735a920a3ca505d382bbc60001b611aae565b60000160006101000a81548173ffffffffffffffffffffffffffffffffffffffff021916908373ffffffffffffffffffffffffffffffffffffffff16021790555050565b611b8483611d28565b600082511180611b915750805b15611ba257611ba08383611d77565b505b505050565b6000611c09826040518060400160405280602081526020017f5361666545524332303a206c6f772d6c6576656c2063616c6c206661696c65648152508573ffffffffffffffffffffffffffffffffffffffff16611e5b9092919063ffffffff16565b9050600081511115611c695780806020019051810190611c299190613194565b611c68576040517f08c379a0000000000000000000000000000000000000000000000000000000008152600401611c5f90613233565b60405180910390fd5b5b505050565b600060019054906101000a900460ff16611cbd576040517f08c379a0000000000000000000000000000000000000000000000000000000008152600401611cb490613096565b60405180910390fd5b611ccd611cc8611aa6565b611831565b565b600060019054906101000a900460ff16611d1e576040517f08c379a0000000000000000000000000000000000000000000000000000000008152600401611d1590613096565b60405180910390fd5b600160c981905550565b611d3181611ac2565b8073ffffffffffffffffffffffffffffffffffffffff167fbc7cd75a20ee27fd9adebab32041f755214dbc6bffa90cc0225b39da2e5c2d3b60405160405180910390a250565b6060611d82836118f7565b611dc1576040517f08c379a0000000000000000000000000000000000000000000000000000000008152600401611db8906132c5565b60405180910390fd5b6000808473ffffffffffffffffffffffffffffffffffffffff1684604051611de99190613356565b600060405180830381855af49150503d8060008114611e24576040519150601f19603f3d011682016040523d82523d6000602084013e611e29565b606091505b5091509150611e5182826040518060600160405280602781526020016134d260279139611e73565b9250505092915050565b6060611e6a8484600085611e95565b90509392505050565b60608315611e8357829050611e8e565b611e8d8383611f62565b5b9392505050565b606082471015611eda576040517f08c379a0000000000000000000000000000000000000000000000000000000008152600401611ed1906133df565b60405180910390fd5b6000808673ffffffffffffffffffffffffffffffffffffffff168587604051611f039190613356565b60006040518083038185875af1925050503d8060008114611f40576040519150601f19603f3d011682016040523d82523d6000602084013e611f45565b606091505b5091509150611f5687838387611fb2565b92505050949350505050565b600082511115611f755781518083602001fd5b806040517f08c379a0000000000000000000000000000000000000000000000000000000008152600401611fa99190613443565b60405180910390fd5b6060831561201457600083510361200c57611fcc856118f7565b61200b576040517f08c379a0000000000000000000000000000000000000000000000000000000008152600401612002906134b1565b60405180910390fd5b5b82905061201f565b61201e8383611f62565b5b949350505050565b6040518060a00160405280600015158152602001600015158152602001600073ffffffffffffffffffffffffffffffffffffffff16815260200160008152602001600081525090565b6000604051905090565b600080fd5b600080fd5b600073ffffffffffffffffffffffffffffffffffffffff82169050919050565b60006120af82612084565b9050919050565b6120bf816120a4565b81146120ca57600080fd5b50565b6000813590506120dc816120b6565b92915050565b60008115159050919050565b6120f7816120e2565b811461210257600080fd5b50565b600081359050612114816120ee565b92915050565b600080604083850312156121315761213061207a565b5b600061213f858286016120cd565b925050602061215085828601612105565b9150509250929050565b6000819050919050565b61216d8161215a565b811461217857600080fd5b50565b60008135905061218a81612164565b92915050565b600080604083850312156121a7576121a661207a565b5b60006121b5858286016120cd565b92505060206121c68582860161217b565b9150509250929050565b6000602082840312156121e6576121e561207a565b5b60006121f4848285016120cd565b91505092915050565b600080fd5b600080fd5b6000601f19601f8301169050919050565b7f4e487b7100000000000000000000000000000000000000000000000000000000600052604160045260246000fd5b61225082612207565b810181811067ffffffffffffffff8211171561226f5761226e612218565b5b80604052505050565b6000612282612070565b905061228e8282612247565b919050565b600067ffffffffffffffff8211156122ae576122ad612218565b5b6122b782612207565b9050602081019050919050565b82818337600083830152505050565b60006122e66122e184612293565b612278565b90508281526020810184848401111561230257612301612202565b5b61230d8482856122c4565b509392505050565b600082601f83011261232a576123296121fd565b5b813561233a8482602086016122d3565b91505092915050565b6000806040838503121561235a5761235961207a565b5b6000612368858286016120cd565b925050602083013567ffffffffffffffff8111156123895761238861207f565b5b61239585828601612315565b9150509250929050565b6000819050919050565b6123b28161239f565b82525050565b60006020820190506123cd60008301846123a9565b92915050565b6000806000606084860312156123ec576123eb61207a565b5b60006123fa868287016120cd565b935050602061240b8682870161217b565b925050604061241c868287016120cd565b9150509250925092565b61242f816120e2565b82525050565b61243e816120a4565b82525050565b61244d8161215a565b82525050565b600060a0820190506124686000830188612426565b6124756020830187612426565b6124826040830186612435565b61248f6060830185612444565b61249c6080830184612444565b9695505050505050565b60006020820190506124bb6000830184612435565b92915050565b6124ca816120e2565b82525050565b6124d9816120a4565b82525050565b6124e88161215a565b82525050565b60a08201600082015161250460008501826124c1565b50602082015161251760208501826124c1565b50604082015161252a60408501826124d0565b50606082015161253d60608501826124df565b50608082015161255060808501826124df565b50505050565b600060a08201905061256b60008301846124ee565b92915050565b60008060006060848603121561258a5761258961207a565b5b6000612598868287016120cd565b93505060206125a9868287016120cd565b92505060406125ba8682870161217b565b9150509250925092565b600082825260208201905092915050565b7f536f7572636520746f6b656e206973206e6f7420737570706f72746564000000600082015250565b600061260b601d836125c4565b9150612616826125d5565b602082019050919050565b6000602082019050818103600083015261263a816125fe565b9050919050565b60006020820190506126566000830184612426565b92915050565b60006020820190506126716000830184612444565b92915050565b7f46756e6374696f6e206d7573742062652063616c6c6564207468726f7567682060008201527f64656c656761746563616c6c0000000000000000000000000000000000000000602082015250565b60006126d3602c836125c4565b91506126de82612677565b604082019050919050565b60006020820190508181036000830152612702816126c6565b9050919050565b7f46756e6374696f6e206d7573742062652063616c6c6564207468726f7567682060008201527f6163746976652070726f78790000000000000000000000000000000000000000602082015250565b6000612765602c836125c4565b915061277082612709565b604082019050919050565b6000602082019050818103600083015261279481612758565b9050919050565b7f555550535570677261646561626c653a206d757374206e6f742062652063616c60008201527f6c6564207468726f7567682064656c656761746563616c6c0000000000000000602082015250565b60006127f76038836125c4565b91506128028261279b565b604082019050919050565b60006020820190508181036000830152612826816127ea565b9050919050565b7f576974686472617720616d6f756e74206973207a65726f000000000000000000600082015250565b60006128636017836125c4565b915061286e8261282d565b602082019050919050565b6000602082019050818103600083015261289281612856565b9050919050565b7f536f7572636520546f6b656e2062616c616e6365206973206e6f7420656e6f7560008201527f6768000000000000000000000000000000000000000000000000000000000000602082015250565b60006128f56022836125c4565b915061290082612899565b604082019050919050565b60006020820190508181036000830152612924816128e8565b9050919050565b60006040820190506129406000830185612435565b61294d6020830184612444565b9392505050565b60006080820190506129696000830187612435565b6129766020830186612435565b6129836040830185612444565b6129906060830184612435565b95945050505050565b7f496e697469616c697a61626c653a20636f6e747261637420697320616c72656160008201527f647920696e697469616c697a6564000000000000000000000000000000000000602082015250565b60006129f5602e836125c4565b9150612a0082612999565b604082019050919050565b60006020820190508181036000830152612a24816129e8565b9050919050565b6000819050919050565b600060ff82169050919050565b6000819050919050565b6000612a67612a62612a5d84612a2b565b612a42565b612a35565b9050919050565b612a7781612a4c565b82525050565b6000602082019050612a926000830184612a6e565b92915050565b7f536f7572636520546f6b656e2062616c616e6365206973206e6f74207a65726f600082015250565b6000612ace6020836125c4565b9150612ad982612a98565b602082019050919050565b60006020820190508181036000830152612afd81612ac1565b9050919050565b7f496e76616c696420746f6b656e20616464726573730000000000000000000000600082015250565b6000612b3a6015836125c4565b9150612b4582612b04565b602082019050919050565b60006020820190508181036000830152612b6981612b2d565b9050919050565b7f4f776e61626c653a206e6577206f776e657220697320746865207a65726f206160008201527f6464726573730000000000000000000000000000000000000000000000000000602082015250565b6000612bcc6026836125c4565b9150612bd782612b70565b604082019050919050565b60006020820190508181036000830152612bfb81612bbf565b9050919050565b7f4465706f73697420616d6f756e74206973207a65726f00000000000000000000600082015250565b6000612c386016836125c4565b9150612c4382612c02565b602082019050919050565b60006020820190508181036000830152612c6781612c2b565b9050919050565b7f536f7572636520746f6b656e206973206c6f636b656400000000000000000000600082015250565b6000612ca46016836125c4565b9150612caf82612c6e565b602082019050919050565b60006020820190508181036000830152612cd381612c97565b9050919050565b7f4e487b7100000000000000000000000000000000000000000000000000000000600052601160045260246000fd5b6000612d148261215a565b9150612d1f8361215a565b9250828201905080821115612d3757612d36612cda565b5b92915050565b7f536f7572636520746f6b656e206465706f736974206c696d697420657863656560008201527f6465640000000000000000000000000000000000000000000000000000000000602082015250565b6000612d996023836125c4565b9150612da482612d3d565b604082019050919050565b60006020820190508181036000830152612dc881612d8c565b9050919050565b7f4f776e61626c653a2063616c6c6572206973206e6f7420746865206f776e6572600082015250565b6000612e056020836125c4565b9150612e1082612dcf565b602082019050919050565b60006020820190508181036000830152612e3481612df8565b9050919050565b612e448161239f565b8114612e4f57600080fd5b50565b600081519050612e6181612e3b565b92915050565b600060208284031215612e7d57612e7c61207a565b5b6000612e8b84828501612e52565b91505092915050565b7f45524331393637557067726164653a206e657720696d706c656d656e7461746960008201527f6f6e206973206e6f742055555053000000000000000000000000000000000000602082015250565b6000612ef0602e836125c4565b9150612efb82612e94565b604082019050919050565b60006020820190508181036000830152612f1f81612ee3565b9050919050565b7f45524331393637557067726164653a20756e737570706f727465642070726f7860008201527f6961626c65555549440000000000000000000000000000000000000000000000602082015250565b6000612f826029836125c4565b9150612f8d82612f26565b604082019050919050565b60006020820190508181036000830152612fb181612f75565b9050919050565b7f5265656e7472616e637947756172643a207265656e7472616e742063616c6c00600082015250565b6000612fee601f836125c4565b9150612ff982612fb8565b602082019050919050565b6000602082019050818103600083015261301d81612fe1565b9050919050565b7f496e697469616c697a61626c653a20636f6e7472616374206973206e6f74206960008201527f6e697469616c697a696e67000000000000000000000000000000000000000000602082015250565b6000613080602b836125c4565b915061308b82613024565b604082019050919050565b600060208201905081810360008301526130af81613073565b9050919050565b60006060820190506130cb6000830186612435565b6130d86020830185612435565b6130e56040830184612444565b949350505050565b7f455243313936373a206e657720696d706c656d656e746174696f6e206973206e60008201527f6f74206120636f6e747261637400000000000000000000000000000000000000602082015250565b6000613149602d836125c4565b9150613154826130ed565b604082019050919050565b600060208201905081810360008301526131788161313c565b9050919050565b60008151905061318e816120ee565b92915050565b6000602082840312156131aa576131a961207a565b5b60006131b88482850161317f565b91505092915050565b7f5361666545524332303a204552433230206f7065726174696f6e20646964206e60008201527f6f74207375636365656400000000000000000000000000000000000000000000602082015250565b600061321d602a836125c4565b9150613228826131c1565b604082019050919050565b6000602082019050818103600083015261324c81613210565b9050919050565b7f416464726573733a2064656c65676174652063616c6c20746f206e6f6e2d636f60008201527f6e74726163740000000000000000000000000000000000000000000000000000602082015250565b60006132af6026836125c4565b91506132ba82613253565b604082019050919050565b600060208201905081810360008301526132de816132a2565b9050919050565b600081519050919050565b600081905092915050565b60005b838110156133195780820151818401526020810190506132fe565b60008484015250505050565b6000613330826132e5565b61333a81856132f0565b935061334a8185602086016132fb565b80840191505092915050565b60006133628284613325565b915081905092915050565b7f416464726573733a20696e73756666696369656e742062616c616e636520666f60008201527f722063616c6c0000000000000000000000000000000000000000000000000000602082015250565b60006133c96026836125c4565b91506133d48261336d565b604082019050919050565b600060208201905081810360008301526133f8816133bc565b9050919050565b600081519050919050565b6000613415826133ff565b61341f81856125c4565b935061342f8185602086016132fb565b61343881612207565b840191505092915050565b6000602082019050818103600083015261345d818461340a565b905092915050565b7f416464726573733a2063616c6c20746f206e6f6e2d636f6e7472616374000000600082015250565b600061349b601d836125c4565b91506134a682613465565b602082019050919050565b600060208201905081810360008301526134ca8161348e565b905091905056fe416464726573733a206c6f772d6c6576656c2064656c65676174652063616c6c206661696c6564a26469706673582212205ce23b3911c38507363540d3c986d0888f26ed7be1712424712ab7b59ebc122964736f6c63430008170033",
  "linkReferences": {},
  "deployedLinkReferences": {}
}