{
  "_format": "hh-sol-artifact-1",
  "contractName": "ERC20MergeToken",
  "sourceName": "contracts/merge/ERC20MergeToken.sol",
  "abi": [
    {
      "inputs": [
        {
          "internalType": "address",
          "name": "_mergeTokenPortal",
          "type": "address"
        },
        {
          "internalType": "string",
          "name": "name_",
          "type": "string"
        },
        {
          "internalType": "string",
          "name": "symbol_",
          "type": "string"
        },
        {
          "internalType": "uint8",
          "name": "_decimals",
          "type": "uint8"
        }
      ],
      "stateMutability": "nonpayable",
      "type": "constructor"
    },
    {
      "anonymous": false,
      "inputs": [
        {
          "indexed": true,
          "internalType": "address",
          "name": "owner",
          "type": "address"
        },
        {
          "indexed": true,
          "internalType": "address",
          "name": "spender",
          "type": "address"
        },
        {
          "indexed": false,
          "internalType": "uint256",
          "name": "value",
          "type": "uint256"
        }
      ],
      "name": "Approval",
      "type": "event"
    },
    {
      "anonymous": false,
      "inputs": [
        {
          "indexed": true,
          "internalType": "address",
          "name": "from",
          "type": "address"
        },
        {
          "indexed": true,
          "internalType": "address",
          "name": "to",
          "type": "address"
        },
        {
          "indexed": false,
          "internalType": "uint256",
          "name": "value",
          "type": "uint256"
        }
      ],
      "name": "Transfer",
      "type": "event"
    },
    {
      "inputs": [],
      "name": "DECIMALS",
      "outputs": [
        {
          "internalType": "uint8",
          "name": "",
          "type": "uint8"
        }
      ],
      "stateMutability": "view",
      "type": "function"
    },
    {
      "inputs": [],
      "name": "MERGE_TOKEN_PORTAL",
      "outputs": [
        {
          "internalType": "address",
          "name": "",
          "type": "address"
        }
      ],
      "stateMutability": "view",
      "type": "function"
    },
    {
      "inputs": [
        {
          "internalType": "address",
          "name": "owner",
          "type": "address"
        },
        {
          "internalType": "address",
          "name": "spender",
          "type": "address"
        }
      ],
      "name": "allowance",
      "outputs": [
        {
          "internalType": "uint256",
          "name": "",
          "type": "uint256"
        }
      ],
      "stateMutability": "view",
      "type": "function"
    },
    {
      "inputs": [
        {
          "internalType": "address",
          "name": "spender",
          "type": "address"
        },
        {
          "internalType": "uint256",
          "name": "amount",
          "type": "uint256"
        }
      ],
      "name": "approve",
      "outputs": [
        {
          "internalType": "bool",
          "name": "",
          "type": "bool"
        }
      ],
      "stateMutability": "nonpayable",
      "type": "function"
    },
    {
      "inputs": [
        {
          "internalType": "address",
          "name": "account",
          "type": "address"
        }
      ],
      "name": "balanceOf",
      "outputs": [
        {
          "internalType": "uint256",
          "name": "",
          "type": "uint256"
        }
      ],
      "stateMutability": "view",
      "type": "function"
    },
    {
      "inputs": [
        {
          "internalType": "address",
          "name": "_from",
          "type": "address"
        },
        {
          "internalType": "uint256",
          "name": "_amount",
          "type": "uint256"
        }
      ],
      "name": "burn",
      "outputs": [],
      "stateMutability": "nonpayable",
      "type": "function"
    },
    {
      "inputs": [],
      "name": "decimals",
      "outputs": [
        {
          "internalType": "uint8",
          "name": "",
          "type": "uint8"
        }
      ],
      "stateMutability": "view",
      "type": "function"
    },
    {
      "inputs": [
        {
          "internalType": "address",
          "name": "spender",
          "type": "address"
        },
        {
          "internalType": "uint256",
          "name": "subtractedValue",
          "type": "uint256"
        }
      ],
      "name": "decreaseAllowance",
      "outputs": [
        {
          "internalType": "bool",
          "name": "",
          "type": "bool"
        }
      ],
      "stateMutability": "nonpayable",
      "type": "function"
    },
    {
      "inputs": [
        {
          "internalType": "address",
          "name": "spender",
          "type": "address"
        },
        {
          "internalType": "uint256",
          "name": "addedValue",
          "type": "uint256"
        }
      ],
      "name": "increaseAllowance",
      "outputs": [
        {
          "internalType": "bool",
          "name": "",
          "type": "bool"
        }
      ],
      "stateMutability": "nonpayable",
      "type": "function"
    },
    {
      "inputs": [
        {
          "internalType": "address",
          "name": "_receiver",
          "type": "address"
        },
        {
          "internalType": "uint256",
          "name": "_amount",
          "type": "uint256"
        }
      ],
      "name": "mint",
      "outputs": [],
      "stateMutability": "nonpayable",
      "type": "function"
    },
    {
      "inputs": [],
      "name": "name",
      "outputs": [
        {
          "internalType": "string",
          "name": "",
          "type": "string"
        }
      ],
      "stateMutability": "view",
      "type": "function"
    },
    {
      "inputs": [],
      "name": "symbol",
      "outputs": [
        {
          "internalType": "string",
          "name": "",
          "type": "string"
        }
      ],
      "stateMutability": "view",
      "type": "function"
    },
    {
      "inputs": [],
      "name": "totalSupply",
      "outputs": [
        {
          "internalType": "uint256",
          "name": "",
          "type": "uint256"
        }
      ],
      "stateMutability": "view",
      "type": "function"
    },
    {
      "inputs": [
        {
          "internalType": "address",
          "name": "to",
          "type": "address"
        },
        {
          "internalType": "uint256",
          "name": "amount",
          "type": "uint256"
        }
      ],
      "name": "transfer",
      "outputs": [
        {
          "internalType": "bool",
          "name": "",
          "type": "bool"
        }
      ],
      "stateMutability": "nonpayable",
      "type": "function"
    },
    {
      "inputs": [
        {
          "internalType": "address",
          "name": "from",
          "type": "address"
        },
        {
          "internalType": "address",
          "name": "to",
          "type": "address"
        },
        {
          "internalType": "uint256",
          "name": "amount",
          "type": "uint256"
        }
      ],
      "name": "transferFrom",
      "outputs": [
        {
          "internalType": "bool",
          "name": "",
          "type": "bool"
        }
      ],
      "stateMutability": "nonpayable",
      "type": "function"
    }
  ],
  "bytecode": "0x60c06040523480156200001157600080fd5b50604051620020d5380380620020d58339818101604052810190620000379190620002e1565b828281600390816200004a9190620005dc565b5080600490816200005c9190620005dc565b5050508373ffffffffffffffffffffffffffffffffffffffff1660808173ffffffffffffffffffffffffffffffffffffffff16815250508060ff1660a08160ff168152505050505050620006c3565b6000604051905090565b600080fd5b600080fd5b600073ffffffffffffffffffffffffffffffffffffffff82169050919050565b6000620000ec82620000bf565b9050919050565b620000fe81620000df565b81146200010a57600080fd5b50565b6000815190506200011e81620000f3565b92915050565b600080fd5b600080fd5b6000601f19601f8301169050919050565b7f4e487b7100000000000000000000000000000000000000000000000000000000600052604160045260246000fd5b62000179826200012e565b810181811067ffffffffffffffff821117156200019b576200019a6200013f565b5b80604052505050565b6000620001b0620000ab565b9050620001be82826200016e565b919050565b600067ffffffffffffffff821115620001e157620001e06200013f565b5b620001ec826200012e565b9050602081019050919050565b60005b8381101562000219578082015181840152602081019050620001fc565b60008484015250505050565b60006200023c6200023684620001c3565b620001a4565b9050828152602081018484840111156200025b576200025a62000129565b5b62000268848285620001f9565b509392505050565b600082601f83011262000288576200028762000124565b5b81516200029a84826020860162000225565b91505092915050565b600060ff82169050919050565b620002bb81620002a3565b8114620002c757600080fd5b50565b600081519050620002db81620002b0565b92915050565b60008060008060808587031215620002fe57620002fd620000b5565b5b60006200030e878288016200010d565b945050602085015167ffffffffffffffff811115620003325762000331620000ba565b5b620003408782880162000270565b935050604085015167ffffffffffffffff811115620003645762000363620000ba565b5b620003728782880162000270565b92505060606200038587828801620002ca565b91505092959194509250565b600081519050919050565b7f4e487b7100000000000000000000000000000000000000000000000000000000600052602260045260246000fd5b60006002820490506001821680620003e457607f821691505b602082108103620003fa57620003f96200039c565b5b50919050565b60008190508160005260206000209050919050565b60006020601f8301049050919050565b600082821b905092915050565b600060088302620004647fffffffffffffffffffffffffffffffffffffffffffffffffffffffffffffffff8262000425565b62000470868362000425565b95508019841693508086168417925050509392505050565b6000819050919050565b6000819050919050565b6000620004bd620004b7620004b18462000488565b62000492565b62000488565b9050919050565b6000819050919050565b620004d9836200049c565b620004f1620004e882620004c4565b84845462000432565b825550505050565b600090565b62000508620004f9565b62000515818484620004ce565b505050565b5b818110156200053d5762000531600082620004fe565b6001810190506200051b565b5050565b601f8211156200058c57620005568162000400565b620005618462000415565b8101602085101562000571578190505b62000589620005808562000415565b8301826200051a565b50505b505050565b600082821c905092915050565b6000620005b16000198460080262000591565b1980831691505092915050565b6000620005cc83836200059e565b9150826002028217905092915050565b620005e78262000391565b67ffffffffffffffff8111156200060357620006026200013f565b5b6200060f8254620003cb565b6200061c82828562000541565b600060209050601f8311600181146200065457600084156200063f578287015190505b6200064b8582620005be565b865550620006bb565b601f198416620006648662000400565b60005b828110156200068e5784890151825560018201915060208501945060208101905062000667565b86831015620006ae5784890151620006aa601f8916826200059e565b8355505b6001600288020188555050505b505050505050565b60805160a0516119d7620006fe60003960008181610426015261044c0152600081816104a90152818161058d015261064301526119d76000f3fe608060405234801561001057600080fd5b50600436106100f55760003560e01c806340c10f19116100975780639dc29fac116100665780639dc29fac1461028a578063a457c2d7146102a6578063a9059cbb146102d6578063dd62ed3e14610306576100f5565b806340c10f191461020257806370a082311461021e578063738e018a1461024e57806395d89b411461026c576100f5565b806323b872dd116100d357806323b872dd146101665780632e0f262514610196578063313ce567146101b457806339509351146101d2576100f5565b806306fdde03146100fa578063095ea7b31461011857806318160ddd14610148575b600080fd5b610102610336565b60405161010f919061108e565b60405180910390f35b610132600480360381019061012d9190611149565b6103c8565b60405161013f91906111a4565b60405180910390f35b6101506103eb565b60405161015d91906111ce565b60405180910390f35b610180600480360381019061017b91906111e9565b6103f5565b60405161018d91906111a4565b60405180910390f35b61019e610424565b6040516101ab9190611258565b60405180910390f35b6101bc610448565b6040516101c99190611258565b60405180910390f35b6101ec60048036038101906101e79190611149565b610470565b6040516101f991906111a4565b60405180910390f35b61021c60048036038101906102179190611149565b6104a7565b005b61023860048036038101906102339190611273565b610543565b60405161024591906111ce565b60405180910390f35b61025661058b565b60405161026391906112af565b60405180910390f35b6102746105af565b604051610281919061108e565b60405180910390f35b6102a4600480360381019061029f9190611149565b610641565b005b6102c060048036038101906102bb9190611149565b6106dd565b6040516102cd91906111a4565b60405180910390f35b6102f060048036038101906102eb9190611149565b610754565b6040516102fd91906111a4565b60405180910390f35b610320600480360381019061031b91906112ca565b610777565b60405161032d91906111ce565b60405180910390f35b60606003805461034590611339565b80601f016020809104026020016040519081016040528092919081815260200182805461037190611339565b80156103be5780601f10610393576101008083540402835291602001916103be565b820191906000526020600020905b8154815290600101906020018083116103a157829003601f168201915b5050505050905090565b6000806103d36107fe565b90506103e0818585610806565b600191505092915050565b6000600254905090565b6000806104006107fe565b905061040d8582856109cf565b610418858585610a5b565b60019150509392505050565b7f000000000000000000000000000000000000000000000000000000000000000081565b60007f0000000000000000000000000000000000000000000000000000000000000000905090565b60008061047b6107fe565b905061049c81858561048d8589610777565b6104979190611399565b610806565b600191505092915050565b7f000000000000000000000000000000000000000000000000000000000000000073ffffffffffffffffffffffffffffffffffffffff163373ffffffffffffffffffffffffffffffffffffffff1614610535576040517f08c379a000000000000000000000000000000000000000000000000000000000815260040161052c90611419565b60405180910390fd5b61053f8282610cd1565b5050565b60008060008373ffffffffffffffffffffffffffffffffffffffff1673ffffffffffffffffffffffffffffffffffffffff168152602001908152602001600020549050919050565b7f000000000000000000000000000000000000000000000000000000000000000081565b6060600480546105be90611339565b80601f01602080910402602001604051908101604052809291908181526020018280546105ea90611339565b80156106375780601f1061060c57610100808354040283529160200191610637565b820191906000526020600020905b81548152906001019060200180831161061a57829003601f168201915b5050505050905090565b7f000000000000000000000000000000000000000000000000000000000000000073ffffffffffffffffffffffffffffffffffffffff163373ffffffffffffffffffffffffffffffffffffffff16146106cf576040517f08c379a00000000000000000000000000000000000000000000000000000000081526004016106c690611419565b60405180910390fd5b6106d98282610e27565b5050565b6000806106e86107fe565b905060006106f68286610777565b90508381101561073b576040517f08c379a0000000000000000000000000000000000000000000000000000000008152600401610732906114ab565b60405180910390fd5b6107488286868403610806565b60019250505092915050565b60008061075f6107fe565b905061076c818585610a5b565b600191505092915050565b6000600160008473ffffffffffffffffffffffffffffffffffffffff1673ffffffffffffffffffffffffffffffffffffffff16815260200190815260200160002060008373ffffffffffffffffffffffffffffffffffffffff1673ffffffffffffffffffffffffffffffffffffffff16815260200190815260200160002054905092915050565b600033905090565b600073ffffffffffffffffffffffffffffffffffffffff168373ffffffffffffffffffffffffffffffffffffffff1603610875576040517f08c379a000000000000000000000000000000000000000000000000000000000815260040161086c9061153d565b60405180910390fd5b600073ffffffffffffffffffffffffffffffffffffffff168273ffffffffffffffffffffffffffffffffffffffff16036108e4576040517f08c379a00000000000000000000000000000000000000000000000000000000081526004016108db906115cf565b60405180910390fd5b80600160008573ffffffffffffffffffffffffffffffffffffffff1673ffffffffffffffffffffffffffffffffffffffff16815260200190815260200160002060008473ffffffffffffffffffffffffffffffffffffffff1673ffffffffffffffffffffffffffffffffffffffff168152602001908152602001600020819055508173ffffffffffffffffffffffffffffffffffffffff168373ffffffffffffffffffffffffffffffffffffffff167f8c5be1e5ebec7d5bd14f71427d1e84f3dd0314c0f7b2291e5b200ac8c7c3b925836040516109c291906111ce565b60405180910390a3505050565b60006109db8484610777565b90507fffffffffffffffffffffffffffffffffffffffffffffffffffffffffffffffff8114610a555781811015610a47576040517f08c379a0000000000000000000000000000000000000000000000000000000008152600401610a3e9061163b565b60405180910390fd5b610a548484848403610806565b5b50505050565b600073ffffffffffffffffffffffffffffffffffffffff168373ffffffffffffffffffffffffffffffffffffffff1603610aca576040517f08c379a0000000000000000000000000000000000000000000000000000000008152600401610ac1906116cd565b60405180910390fd5b600073ffffffffffffffffffffffffffffffffffffffff168273ffffffffffffffffffffffffffffffffffffffff1603610b39576040517f08c379a0000000000000000000000000000000000000000000000000000000008152600401610b309061175f565b60405180910390fd5b610b44838383610ff4565b60008060008573ffffffffffffffffffffffffffffffffffffffff1673ffffffffffffffffffffffffffffffffffffffff16815260200190815260200160002054905081811015610bca576040517f08c379a0000000000000000000000000000000000000000000000000000000008152600401610bc1906117f1565b60405180910390fd5b8181036000808673ffffffffffffffffffffffffffffffffffffffff1673ffffffffffffffffffffffffffffffffffffffff16815260200190815260200160002081905550816000808573ffffffffffffffffffffffffffffffffffffffff1673ffffffffffffffffffffffffffffffffffffffff168152602001908152602001600020600082825401925050819055508273ffffffffffffffffffffffffffffffffffffffff168473ffffffffffffffffffffffffffffffffffffffff167fddf252ad1be2c89b69c2b068fc378daa952ba7f163c4a11628f55a4df523b3ef84604051610cb891906111ce565b60405180910390a3610ccb848484610ff9565b50505050565b600073ffffffffffffffffffffffffffffffffffffffff168273ffffffffffffffffffffffffffffffffffffffff1603610d40576040517f08c379a0000000000000000000000000000000000000000000000000000000008152600401610d379061185d565b60405180910390fd5b610d4c60008383610ff4565b8060026000828254610d5e9190611399565b92505081905550806000808473ffffffffffffffffffffffffffffffffffffffff1673ffffffffffffffffffffffffffffffffffffffff168152602001908152602001600020600082825401925050819055508173ffffffffffffffffffffffffffffffffffffffff16600073ffffffffffffffffffffffffffffffffffffffff167fddf252ad1be2c89b69c2b068fc378daa952ba7f163c4a11628f55a4df523b3ef83604051610e0f91906111ce565b60405180910390a3610e2360008383610ff9565b5050565b600073ffffffffffffffffffffffffffffffffffffffff168273ffffffffffffffffffffffffffffffffffffffff1603610e96576040517f08c379a0000000000000000000000000000000000000000000000000000000008152600401610e8d906118ef565b60405180910390fd5b610ea282600083610ff4565b60008060008473ffffffffffffffffffffffffffffffffffffffff1673ffffffffffffffffffffffffffffffffffffffff16815260200190815260200160002054905081811015610f28576040517f08c379a0000000000000000000000000000000000000000000000000000000008152600401610f1f90611981565b60405180910390fd5b8181036000808573ffffffffffffffffffffffffffffffffffffffff1673ffffffffffffffffffffffffffffffffffffffff1681526020019081526020016000208190555081600260008282540392505081905550600073ffffffffffffffffffffffffffffffffffffffff168373ffffffffffffffffffffffffffffffffffffffff167fddf252ad1be2c89b69c2b068fc378daa952ba7f163c4a11628f55a4df523b3ef84604051610fdb91906111ce565b60405180910390a3610fef83600084610ff9565b505050565b505050565b505050565b600081519050919050565b600082825260208201905092915050565b60005b8381101561103857808201518184015260208101905061101d565b60008484015250505050565b6000601f19601f8301169050919050565b600061106082610ffe565b61106a8185611009565b935061107a81856020860161101a565b61108381611044565b840191505092915050565b600060208201905081810360008301526110a88184611055565b905092915050565b600080fd5b600073ffffffffffffffffffffffffffffffffffffffff82169050919050565b60006110e0826110b5565b9050919050565b6110f0816110d5565b81146110fb57600080fd5b50565b60008135905061110d816110e7565b92915050565b6000819050919050565b61112681611113565b811461113157600080fd5b50565b6000813590506111438161111d565b92915050565b600080604083850312156111605761115f6110b0565b5b600061116e858286016110fe565b925050602061117f85828601611134565b9150509250929050565b60008115159050919050565b61119e81611189565b82525050565b60006020820190506111b96000830184611195565b92915050565b6111c881611113565b82525050565b60006020820190506111e360008301846111bf565b92915050565b600080600060608486031215611202576112016110b0565b5b6000611210868287016110fe565b9350506020611221868287016110fe565b925050604061123286828701611134565b9150509250925092565b600060ff82169050919050565b6112528161123c565b82525050565b600060208201905061126d6000830184611249565b92915050565b600060208284031215611289576112886110b0565b5b6000611297848285016110fe565b91505092915050565b6112a9816110d5565b82525050565b60006020820190506112c460008301846112a0565b92915050565b600080604083850312156112e1576112e06110b0565b5b60006112ef858286016110fe565b9250506020611300858286016110fe565b9150509250929050565b7f4e487b7100000000000000000000000000000000000000000000000000000000600052602260045260246000fd5b6000600282049050600182168061135157607f821691505b6020821081036113645761136361130a565b5b50919050565b7f4e487b7100000000000000000000000000000000000000000000000000000000600052601160045260246000fd5b60006113a482611113565b91506113af83611113565b92508282019050808211156113c7576113c661136a565b5b92915050565b7f4e6f7420706f7274616c00000000000000000000000000000000000000000000600082015250565b6000611403600a83611009565b915061140e826113cd565b602082019050919050565b60006020820190508181036000830152611432816113f6565b9050919050565b7f45524332303a2064656372656173656420616c6c6f77616e63652062656c6f7760008201527f207a65726f000000000000000000000000000000000000000000000000000000602082015250565b6000611495602583611009565b91506114a082611439565b604082019050919050565b600060208201905081810360008301526114c481611488565b9050919050565b7f45524332303a20617070726f76652066726f6d20746865207a65726f2061646460008201527f7265737300000000000000000000000000000000000000000000000000000000602082015250565b6000611527602483611009565b9150611532826114cb565b604082019050919050565b600060208201905081810360008301526115568161151a565b9050919050565b7f45524332303a20617070726f766520746f20746865207a65726f20616464726560008201527f7373000000000000000000000000000000000000000000000000000000000000602082015250565b60006115b9602283611009565b91506115c48261155d565b604082019050919050565b600060208201905081810360008301526115e8816115ac565b9050919050565b7f45524332303a20696e73756666696369656e7420616c6c6f77616e6365000000600082015250565b6000611625601d83611009565b9150611630826115ef565b602082019050919050565b6000602082019050818103600083015261165481611618565b9050919050565b7f45524332303a207472616e736665722066726f6d20746865207a65726f20616460008201527f6472657373000000000000000000000000000000000000000000000000000000602082015250565b60006116b7602583611009565b91506116c28261165b565b604082019050919050565b600060208201905081810360008301526116e6816116aa565b9050919050565b7f45524332303a207472616e7366657220746f20746865207a65726f206164647260008201527f6573730000000000000000000000000000000000000000000000000000000000602082015250565b6000611749602383611009565b9150611754826116ed565b604082019050919050565b600060208201905081810360008301526117788161173c565b9050919050565b7f45524332303a207472616e7366657220616d6f756e742065786365656473206260008201527f616c616e63650000000000000000000000000000000000000000000000000000602082015250565b60006117db602683611009565b91506117e68261177f565b604082019050919050565b6000602082019050818103600083015261180a816117ce565b9050919050565b7f45524332303a206d696e7420746f20746865207a65726f206164647265737300600082015250565b6000611847601f83611009565b915061185282611811565b602082019050919050565b600060208201905081810360008301526118768161183a565b9050919050565b7f45524332303a206275726e2066726f6d20746865207a65726f2061646472657360008201527f7300000000000000000000000000000000000000000000000000000000000000602082015250565b60006118d9602183611009565b91506118e48261187d565b604082019050919050565b60006020820190508181036000830152611908816118cc565b9050919050565b7f45524332303a206275726e20616d6f756e7420657863656564732062616c616e60008201527f6365000000000000000000000000000000000000000000000000000000000000602082015250565b600061196b602283611009565b91506119768261190f565b604082019050919050565b6000602082019050818103600083015261199a8161195e565b905091905056fea2646970667358221220cf70fe3fdba9eb5c34d640f047b1e01a6ec34a6785b07044900e928c8c0cb01a64736f6c63430008170033",
  "linkReferences": {},
  "deployedLinkReferences": {}
}